:020000001D28B9
:100008007E14803120007F08A1000B1D1928D030F4
:1000180095000B110B113921323020006A020318A8
:1000280019280130A0002008EA072108FF007E10E7
:1000380009001E282000EA01EB01EC01ED01A030C7
:1000480084000030850013303C257E102000342DBC
:100058002000C800C601C70102304702103003194A
:100068004602031808004808A2000030A300083020
:10007800A4000030A500D5232000AE00AF01AE35A6
:10008800AF0D4808A2000030A3001330A4000030D0
:10009800A500D5232000B000B101B035B10DB035B1
:1000A800B10D4808A2000030A3001930A4000030A8
:1000B800A500D5232000B200B301B235B30DB23587
:1000C800B30DB235B30D4808A2000030A3001E30AE
:1000D800A4000030A500D5232000B400B501B40E5B
:1000E800B50EF030B50534080F39B504F030B40555
:1000F8007630B6008430B70034083607B8003508C3
:10010800373DB90032083807BA003308393DBB001B
:1001180030083A07BC0031083B3DBD002E083C07BB
:10012800BE002F083D3DBF004808A2000030A300D4
:100138000030A400A500D52320003E0784003F0816
:1001480003183F0A85000008C0004008C20048089C
:10015800A2000030A3000F30A4000030A500D52372
:100168002000AE002E08C3004808A2000030A300FB
:100178001F30A4000030A500D5232000AE002E08B3
:10018800C4002D08A3002C08A2004609AE004709A8
:10019800AF00AE0A0319AF0A2E080F3EB0000230B6
:1001A8002F3DB1003F303005A40000303105A500D7
:1001B800D5232000B2003208C5004308440645068E
:1001C8004206AE002E08C1004808023E860087019C
:1001D8000108AE000730AE36890BEF284808033E09
:1001E8008600870101352E04AF004808033E8600CB
:1001F80087012F088100480A860087010108AE00A0
:100208000730AE36890B05294808023E860087016B
:1002180001352E04AF004808023E860087012F08EA
:1002280081004808860087010108AE000730AE3615
:10023800890B1B29480A8600870101352E04AF0067
:10024800480A860087012F08810048088600870130
:1002580001354104AE004808860087012E08810058
:100268000130C6070030C73D30282100A01C3F29B7
:1002780021002014412921002010A01020008E1EEA
:1002880047292100A0142100A01C4C2901304D2928
:100298000030F900201C522901305329003079061A
:1002A800031D5C290130F90079082000EC070800DB
:1002B8002100200C890C3F39003A031D7F290430A6
:1002C80020006C02031C7A290D306C0203187A296D
:1002D8000130F9007908EB0717306B06031D7C29FC
:1002E8002100200803390438A0007C292000EB01F4
:1002F8002000EC0108002100200C890C3F39013A4C
:10030800031D9E29A01C9829463020006C02031C5E
:1003180098295B306C0203189829210020080339BA
:100328000838A000A1019B2903302100A005200066
:10033800EC0108002100200C890C3F39023A031D0A
:100348000800A01C002A0830F0000030F100210845
:10035800F900FA017908F2007A08F300842370089A
:10036800FB007B08FC00210021080739F900790807
:10037800FD00043020006C02031CD7290B306C02EE
:100388000318D7290130F9007D0ACB29F935890BE3
:10039800CA297908FF3AFA007C08A23E860087013C
:1003A8007A088105EF290C3020006C02031CF5291E
:1003B80015306C020318F5290130F9007D0AE5298A
:1003C800F935890BE4297908FA007C08A23E8600F1
:1003D80087017A0881040130F90079082100A10712
:1003E800F82903302100A00540302102031C002A0F
:1003F800200803390C38A0002000EC010800200078
:10040800A4002100200C890C3F39033A03190E2A55
:10041800003008002608031D1F2A2708031D1F2A6D
:100428002808031D1F2A29080F39031D1F2A033016
:10043800A00500300800260A031D352A270A031DD7
:10044800352A280A031D352A0F3029052000A20065
:100458000F302206031D352A03302100A005003085
:1004680008002000A5010430250203184F2A25089A
:10047800AA3E860087012508A23E8400850100085F
:100488000106031D4F2A0130A2002208A5070430E7
:100498002502031C3B2A04302506031D582A033075
:1004A8002100A005003008002000A5010430250225
:1004B8000318802A2508A23E860087010108A200A9
:1004C8002508AA3E86008701220881002508A23E49
:1004D800860087010108A20025082407A300230835
:1004E80086008701220881000130A2002208A507A2
:1004F80004302502031C5E2A210026082000A200E1
:100508002408043E8600870122088100210027086C
:100518002000A2002408053E8600870122088100E9
:10052800210028082000A2002408063E8600870132
:1005380022088100210029082000A2002408073E83
:10054800860087012208810003302100A0050130C0
:1005580008002000CB0054300322003A031DB62ABD
:100568000030080020005B080F392038C90049080E
:10057800CF005A08C9004908CE005908C9004908DF
:10058800CD005808C9004908CC002C30AC00853093
:10059800AD004C302C2020005B080F396038C900B2
:1005A8004908D3005A08C9004908D2005908C900A7
:1005B8004908D1005808C9004908D00064002C3007
:1005C8002000AC008530AD0050302C2064004C3049
:1005D8002000AC000030AD0054302C20200056081C
:1005E8005806031D012BF0305B05C900F030570594
:1005F800CA004A0849060319032B00300800DC0129
:1006080008305C0203181E2B5C08543E86008701E4
:100618000108C9005C084B07CA004A088600870120
:10062800490881000130C9004908DC0708305C022C
:10063800031C082B013008002000AD00AC01083075
:100648002C0203183D2B2C082D07A2002208860037
:1006580087010108A3002C08243E8600870123088F
:1006680081000130A2002208AC0708302C02031CCC
:10067800272B2808A2002D08860087012208810060
:100688002908A2002D0A86008701220881002A086D
:10069800A2002D08023E86008701220881002B084F
:1006A800A2002D08033E86008701220881000F3032
:1006B800A2002D08033E860087012208810526082E
:1006C800A2002D08043E8600870122088100270821
:1006D800A2002D08053E8600870122088100240813
:1006E800A2002D08063E8600870122088100250801
:1006F800A2002D08073E8600870122088100080015
:10070800F601F11F8E2BF009F109F00A0319F10A1D
:10071800F601F60AF31F992BF209F309F20A0319F5
:10072800F30A0130F4007408F606F701F8017008BE
:1007380071040319C82BF501F50AF11BAD2B013023
:10074800F035F10D890BA42B0130F4007408F5077E
:10075800A12B0130F735F80D890BAE2B7108730208
:10076800031DB82B70087202031CBF2B7008F2021D
:100778007108F33B77140130F136F00C890BC02B6C
:100788000130F502031DAD2B76080319D02BF709AC
:10079800F809F70A0319F80A7808F1007708F00051
:1007A800080020002508A7002408A600A736A60CE4
:1007B800A736A60CA736A60C2608A8002808AA0063
:1007C80024080739A6002608AB002308A70022083A
:1007D800A6002A082607840027080318270A850088
:1007E8000008A8000130A9002B0AFB2BA935890BAA
:1007F800FA2B29082805031D032C003008000130B6
:1008080008002000A700A8012508A6002608A800BF
:1008180028080319080023009E1C0F2C2000270815
:1008280086008701010823009A0020002708860017
:1008380087010108D0242000A600260C031C272CC1
:1008480023001E14292C23001E1001302000A802AA
:100858000130A6002608A7070C2C24008E162100BC
:100868008E162010A0100330A005A1012000A301BE
:10087800083023020318522C2308A23E8600870161
:1008880081012308AA3E8600870181010130A20068
:100898002208A30708302302031C402CED0108009E
:1008A8002000A500A6012308260203180800260830
:1008B8002507A40024088600870101080C252000CC
:1008C800A7011E3027020318712C0130A400240848
:1008D800A7071E302702031C692C0130A400240836
:1008E800A607572C00340134013401340034013494
:1008F800003400340034003401340034013401344D
:10090800013400340034003401340134013400343B
:10091800013400340034013400340134013401342A
:1009280000340034BF302000A200220822009D05B8
:10093800DF302000A200220822009D05F7302000A9
:10094800A200220821008E052000910124009401B4
:100958002A3095000730920020008E1508002200EA
:100968009D171D1523009E131E179E161E121E1579
:100978009F119E149D171D179D161D169D111D1163
:100988009D10803021008E00083023009F00013028
:100998009C00A1309B0008002000A4002408031933
:1009A800E52C2308031DDA2C0130DB2C0030A200D3
:1009B8002208A3002408FF3E2405A2002208A40060
:1009C800D22C230808005E30AD22013A031D08002E
:1009D8005E30202308302000DD005D08A3005E3073
:1009E800542408302000DD005D08A5005E30052491
:1009F800080042252225B324312496248B17210090
:100A0800AE01AF01B201FA30B0000030B100080009
:100A18002000A2008E112208240091002000911DC0
:100A2800122D91118E150800283020006A02031833
:100A38001F2D00300800EA01013008008130210034
:100A480095000B11D030200095000B118B16080073
:100A5800EF34CD34AB34893467344534233401342E
:100A6800FD241825003A0319352D6400E724352D97
:100A7800640080010131890B3D2D0034783021005C
:100A88009900103097000800013400340034003415
:020000040001F9
:04000E001CEFFFDE06
:00000001FF
