:0400000080313828EB
:100008007E14803120007F08A1000B1D1B28D030F2
:1000180095000B110B1185319A2580313230200063
:10002800630203181B280130A0002008E307911E73
:100038003428763023001902031C25282000E20109
:10004800E20A2300190A03192D28FE301906031D98
:10005800322819082000A0002008E1002000911291
:100068002108FF007E10090080313A284D308400B5
:100078008C308500D4308600003087000A308C31FF
:1000880033248031E101E201E301E401E501A0301C
:1000980084000030850034308C312D247E102000FF
:1000A8008C317E2C4C308F3138278031003A031D3B
:1000B8005F28113008002000500821003B06031D6E
:1000C8007C282000510821003C06031D7C282000C4
:1000D800520821003D06031D7C280F303E052000F4
:1000E800C7000F305305C8004808470603197E2883
:1000F800113008002000D80104305802031898284D
:100108005808B33E8600870158084C3E8400850194
:1001180000080106031D98280130C7004708D807C2
:1001280004305802031C842804305806031DE728AD
:10013800F0305305C700203047060319B828F030BF
:100148005305C700303047060319B828F030530567
:10015800C700903047060319B828F0305305C70088
:1001680050304706031DE528210029080319E32814
:10017800F03020005305C70020304706031DC6286D
:1001880009300800F0305305C70090304706031DBA
:10019800CF2806300800F0305305C7003030470636
:1001A800031DD82805300800F0305305C70050302B
:1001B8004706031DE12807300800113008001130F8
:1001C8000800113008002000D80104305802031834
:1001D800012958084C3E860087010108C7005808C5
:1001E800B33E86008701470881000130C7004708F1
:1001F800D80704305802031CED28BF30AA0000308D
:10020800AB004C3084317D24803120004E085006EC
:10021800031D1829F0305305C700F0304F05C800FA
:100228004808470603191A29113008004C08C70066
:10023800C8014D08C900CA014908CA00C9014708D0
:100248004907D40048084A3DD50021003708200056
:10025800C700C801210038082000C900CA014908A0
:10026800CA00C90147084907D60048084A3DD700CF
:100278000030550232300319540203186829FF3040
:100288005702CE3003195602031C68295609C700C5
:100298005709C800C70A0319C80A54084707C900FC
:1002A8005508483DCA004908313ED60000304A3D4D
:1002B800D70000305702333003195602031C8E2929
:1002C8008D31C42511300800200055085702031D40
:1002D8006F2954085602031C75298D31C425113025
:1002E800080020005609C7005709C800C70A0319A3
:1002F800C80A54084707D6005508483DD7000030BB
:100308005702333003195602031C8E298D31C42538
:100318001130080020004C08C70047082100B7002A
:1003280020004D08C70047082100B8003708200002
:10033800C7004708A20000308D316B2580312100AD
:1003480038082000C7004708A20001308D316B250E
:100358008031003020005702043003195602031C74
:10036800E52911300800003008000130080002308B
:10037800080003300800043008008C31AF248031B5
:10038800013A031DCA292100A901A90A053008005C
:100398008C31AF248031013A031DD5292100A901F0
:1003A800A90A063008002100A901A90A0730080097
:1003B800083008002100A901A90A093008001130F5
:1003C800080020005308F039C700C8014808003A5F
:1003D8000319EF29E3294708103A0319BF29303ACE
:1003E8000319DE29103A0319C129703A0319BB29E8
:1003F800103A0319D729303A0319B729E03A0319F3
:10040800BD29103A0319CC29303A0319B929603AA1
:100418000319DC29E329080021004E08031D1D2AC1
:10042800E830CB000330CC00C901CA01CE01CE0AA6
:1004380008004E03031D1E2B0130CB020030CC3BBD
:10044800FA302000A2000030A30021004C08200050
:10045800A50021004B082000A4008D31972582318A
:10046800200022082304031D5D2A8C31AF24823129
:10047800023A03195D2A7F308E312326823121000A
:100488004B084C04031D5D2A8C3124248231FF3A29
:10049800031D582AF4302000A2000130A300A40153
:1004A800A40A8C31E6248231E8302100CB000330E5
:1004B800CC00FA302000A2000030A30021004C0834
:1004C8002000A50021004B082000A4008D319725AD
:1004D8008231003020002302073003192202031C56
:1004E800912AFA30A2000030A30021004C08200015
:1004F800A50021004B082000A4008D3197258231EA
:10050800003020002302F730031922020318912A31
:100518008031562082312000922A1130D9005908A2
:10052800DA0009305A06031DA02A0230D9005908FA
:100538002100CD00CE010800053020005A0603191D
:10054800AD2A06305A060319AD2A07305A06031D8C
:10055800EB2A8C31AF248231003A031DDD2A0530A5
:1005680020005A060319BC2A06305A06031DDD2A44
:100578005A088E31232682318C311B2482314B302C
:100588002000A2000030A300A401A40A8C31E624B4
:1005980020005A08D90059082100CF003630C90078
:1005A8000130CA0003302000D90059082100CE00CC
:1005B800080003302000D90059082100CD00200090
:1005C8005A08D90059082100CF00CE01080011307F
:1005D80020005A060319112B5A088E31232682311E
:1005E8008C311B24823120005A08D9005908210077
:1005F800CF003630C9000130CA004B302000A200BD
:100608000030A300A401A40A8C31E624823103300F
:100618002000D90059082100CE0020000C1D080038
:100628000230D90059082100CE00DC30C90005305D
:10063800CA00080002304E06031D372B0130C902DC
:100648000030CA3B49084A04031D312B04302000FE
:10065800D90059082100CD00CE0120000C1908004E
:100668002100CE01080003304E06031D08000130AA
:10067800C9020030CA3B963049064A04031D542B70
:100688008C3121248231003A0319542B4B3020003D
:10069800A2000030A300A401A40A8C31E624823110
:1006A800210049084A04031D0800CE010800200063
:1006B800DA0052308F3138278331003A031D662B18
:1006C800003008002000DB0104305B020318802B97
:1006D8005B08B33E860087015B08523E84008501B3
:1006E80000080106031D802B0130C8004808DB07FD
:1006F80004305B02031C6C2B04305B06031D862B45
:1007080000300800DB0104305B0203189F2B5B08F4
:10071800523E860087010108C8005B08B33E860088
:100728008701480881000130C8004808DB07043009
:100738005B02031C8B2B59080F392038C800480866
:10074800CD005808C8004808CC005708C800480819
:10075800CB005608C8004808CA001E30AA008830D6
:10076800AB004A3084317D248331200059080F3989
:100778006038C8004808D1005808C8004808D000A8
:100788005708C8004808CF005608C8004808CE00D7
:100798001E30AA008830AB004E3084317D2483316E
:1007A8004A302000AA000030AB00523084317D244A
:1007B8008331200054085606031DEC2BF0305905F0
:1007C800C800F0305505C900490848060319EE2B42
:1007D800003008004703031D0F2CDB0104305B02C7
:1007E80003180D2C5B08043E523E86008701010861
:1007F800C8005B085A07C9004908860087014808ED
:1008080081000130C8004808DB0704305B02031C84
:10081800F62B0130080002304706031D7B2C5A08CE
:100828008600870101085606031D382C5A0A8600DF
:10083800870101085706031D382C5A08023E860016
:10084800870101085806031D382C5A08033E860004
:1008580087010F3059060319332C0130342C00302E
:1008680001050F3903193A2C00300800DB01083064
:100878005B0203185F2C5B084A3E8600870101086B
:10088800C8005B08BF3E86008701480881005B08F6
:10089800523E860087010108C8005B08B73E860003
:1008A8008701480881000130C8004808DB07083084
:1008B8005B02031C3F2CDB0112305B020318792C0E
:1008C8005B08B73E860087010108C8004808A200F7
:1008D8005B088D316B25833101302000C800480842
:1008E800DB0712305B02031C642C01300800003067
:1008F80008002000C600C401C501023045021030BE
:1009080003194402031808004608A2000030A30097
:100918000830A4000030A5008D314725843120001F
:10092800AC00AD01AC35AD0D4608A2000030A30007
:100938001330A4000030A5008D31472584312000F4
:10094800AE00AF01AE35AF0DAE35AF0D4608A20013
:100958000030A3001930A4000030A5008D314725D0
:1009680084312000B000B101B035B10DB035B10D02
:10097800B035B10D4608A2000030A3001E30A40017
:100988000030A5008D31472584312000B200B30125
:10099800B20EB30EF030B30532080F39B304F0309D
:1009A800B205FE30B4008730B50032083407B6000F
:1009B8003308353DB70030083607B8003108373DF1
:1009C800B9002E083807BA002F08393DBB002C089B
:1009D8003A07BC002D083B3DBD004608A200003088
:1009E800A3000030A400A5008D31472584312000E4
:1009F8003C0784003D0803183D0A85000008BE0036
:100A08003E08C0004608A2000030A3000F30A40032
:100A18000030A5008D31472584312000AC002C081A
:100A2800C1004608A2000030A3001F30A400003017
:100A3800A5008D31472584312000AC002C08C20068
:100A48002B08A3002A08A2004409AC004509AD0000
:100A5800AC0A0319AD0A2C080F3EAE0002302D3D3A
:100A6800AF003F302E05A40000302F05A5008D31C2
:100A7800472584312000B0003008C30041084206F1
:100A880043064006AC002C08BF004608023E86001C
:100A980087010108AC000730AC36890B502D460899
:100AA800033E8600870101352C04AD004608033E4D
:100AB800860087012D088100460A86008701010803
:100AC800AC000730AC36890B662D4608023E86001E
:100AD800870101352C04AD004608023E86008701D7
:100AE8002D0881004608860087010108AC00073000
:100AF800AC36890B7C2D460A8600870101352C040B
:100B0800AD00460A860087012D0881004608860048
:100B1800870101353F04AC004608860087012C0890
:100B280081000130C4070030C53D812C2100A71C7D
:100B3800A02D21002714A22D21002710A710200086
:100B48008C1EA82D2100A7142100A71CAD2D013053
:100B5800AE2D0030F900271CB32D0130B42D003024
:100B68007906031DBD2D0130F90079082000E5073D
:100B780008002100270C890C3F39013A031DDE2D9E
:100B8800A71CD62D343020006502031CD62D8530D5
:100B980065020318D62D2100270803390838A70055
:100BA800A801DB2D2100270803390438A7002000FD
:100BB800E50108002100270C890C3F39023A031D82
:100BC8000800A7184A2E0830F0000030F100280865
:100BD800F900FA017908F2007A08F3008E31E72665
:100BE80085317008FB007B08FC00210028080739C4
:100BF800F9007908FD00043020006502031C182E56
:100C08000B3065020318182E0130F9007D0A0D2EED
:100C1800F935890B0C2E7908FA007C08AB3E860062
:100C280087017A088104312E0C3020006502031CEC
:100C3800372E153065020318372E0130F9007D0A6A
:100C4800262EF935890B252E7908FF3AFA007C08FB
:100C5800AB3E860087017A0881050130F9007908E2
:100C68002100A8073C2E2100270803390438A700D3
:100C780020006508F90079082100AA004030280200
:100C8800031C4A2E270803390C38A700A71C742E0A
:100C98002A0820006507F900FA01FA0D7A08803A57
:100CA800FB0080307B02031D5B2E12307902031C8F
:100CB8006F2E21002A0820006507F900FA01FA0DB5
:100CC8007A08803AFB0080307B02031D6D2E2730A6
:100CD8007902031C742E2100270803390438A70061
:100CE8002000E501080021004E08031D8F2EFA3070
:100CF8002000A2000030A300A4018C31E624C830F3
:100D08002100C9000030CA00F030CB000A30CC0006
:100D1800CE01CE0A08004E03031DC02E0130CB02BF
:100D28000030CC3B4B084C04031DB32E9030CB0055
:100D38000130CC008D31C425863104302000DC0020
:100D48005C082100CE0032302000A2000030A30051
:100D58000330DC005C08A4008C31E62486312000D6
:100D68000C1908000230DC005C082100CE0043307A
:100D7800CB002730CC00080002304E06031DF42EAD
:100D88002000C701C70AD03083315B238631013A7E
:100D9800031DE02E00302000A200A300A4018C3126
:100DA800E624863103302000DC005C082100CE00F8
:100DB8001030CB002730CC0001302100CB020030AE
:100DC800CC3B4B084C04031D0800CE01CD01CD0AD5
:100DD80000302000A200A300A4018C31E624080002
:100DE800033021004E06031D2B2F02302000DC00AB
:100DF8005C08C700D03083315B238631013A031D7C
:100E0800152F2100CE01CD01CD0A32302000A200DD
:100E18000030A3000530DC005C08A4008C31E62417
:100E2800863101302100CB020030CC3B4B084C040A
:100E3800031D0800CE01CD01CD0AE8302000A20034
:100E48000330A300A401A40A8C31E624080004306E
:100E580021004E06031D08000130CB020030CC3BB8
:100E68004B084C04031D0800CE01CD01CD0A00300B
:100E78002000A200A300A4018C31E6240800210070
:100E88004E08031D522F9630C9000030CA0090301A
:100E9800CB000130CC00CE01CE0A08004E03031D62
:100EA800BE2F8031562087312000D9005908DA003A
:100EB80001302100C9020030CA3B49084A04031D19
:100EC8008C2F8C311E2487318C311B2487310930BB
:100ED8008E312326873109302000D9005908210096
:100EE800CF004B302000A2000030A300A401A40AC8
:100EF8008C31E62436302100C9000130CA000330A5
:100F08002000D90059082100CE00CD01CD0A0800E3
:100F18000130CB020030CC3B4B084C04031DB32FEF
:100F280002302000D90059082100CE004B302000A3
:100F3800A2000030A3007D30D9005908A4008C31EC
:100F4800E624873132302100CB000030CC009030CD
:100F5800C9000130CA000A308E3123268731093092
:100F680020005A06031D080096302100C9000030F1
:100F7800CA00080002304E06031D080080315620C2
:100F880087312000D9005908DA0001302100CB024E
:100F98000030CC3B4B084C04031DDB2F0A308E314C
:100FA8002326873132302100CB000030CC000130BD
:100FB800C9020030CA3B49084A04031DF32F003018
:100FC8002000A200A300A4018C31E624873121006F
:100FD800CE018C311E2487312100CD01CD0A093084
:100FE80020005A06031D080090302100C900013076
:100FF800CA000800003401340134013400340134DB
:101008000034003400340034013400340134013435
:101018000134003400340034013401340134003424
:101028000134003400340134003401340134013413
:101038000034003421341834DE347B340A349C34D0
:04104800D534513416
:101836002000E20108002100A9010800200062083A
:101846000800200061080800783021009900143053
:1018560097000800640080010131890B2E2C0034AA
:10186600FE0012001E00FE0B342C003481302100D5
:1018760095000B11D030200095000B118B16080037
:1018860028302000630203184A2C00300800E301C8
:10189600013008009E340E341034023443340734C9
:1018A60091340F34773406342100A101A201A3013B
:1018B600A401A501A601EF302000A2002208210004
:1018C6008C0520000C1608002000A400240803192B
:1018D6007C2C2308031D712C0130722C0030A200D1
:1018E6002208A3002408FF3E2405A2002208A40023
:1018F600692C230808008C31CA248C318C3143248E
:101906008C31003A0319812C640021004D35D43EF8
:1019160086008701413F8A00403F0A008C318D31A5
:10192600F3258C31812C2000A60023009E1C982CC8
:101936002000260823009A00200026088C31672400
:101946008C312000A500250C031CAC2C23001E1492
:10195600080023001E10080021003B08031DBE2CB2
:101966003C08031DBE2C3D08031DBE2C3E08031D6E
:10197600BE2C023008000F303E052000A2000830C1
:1019860022020318C82C00300800013008008C31F0
:1019960027248C318C3139248C318E3159268C3167
:1019A6008D3105258C318C31572423008C01210083
:1019B6000C158B17C901CA01CE01CD01FA30CB0037
:1019C6000030CC0008002000220823040319ED2C67
:1019D6000C12EE2C0C162408A50025082100A500E3
:1019E60020002408A50025082100A60020002308C1
:1019F6002100A200200022082100A100A301A401C9
:101A0600A00108007F302000A200220822009D05C8
:101A16001D1523009E131E179E161E121E159F11BE
:101A26009E149D171D179D161D169D111D119D10A7
:101A3600210091168E16083023009F0001309C006D
:101A4600A1309B0008002000A5002A2D200064007C
:101A560023009518292D20002508A200A30122089D
:101A66002300910020002308230092003F3020002D
:101A7600A400240823009505151403101518031453
:101A86000030093D1308080020002508A700240897
:101A9600A600A736A60CA736A60CA736A60C2208C3
:101AA600260784002308273D85000008A80001308A
:101AB600A90024080739890A612DA935890B602DEB
:101AC600290828050319692D01300800003008008F
:101AD6002000A500230095186D2D20002508A300E1
:101AE600A40123082300910020002408230092006B
:101AF60020002208230093003F302000A300230883
:101B060023009505200003108B1B03148B13230061
:101B1600151555309600AA3096009514151120001B
:101B2600031C08008B170800200022082304031951
:101B3600BF2DA701A70AA31BAA2D0130A235A30D0D
:101B4600890BA12D0130A6002608A7079E2D230884
:101B56002502031DB02D22082402031CB62D2208DF
:101B6600A4022308A53B0130A336A20C890BB72D8E
:101B76000130A702031DAA2D2508A3002408A200F0
:101B860008002000A701083027020318DC2D2708CB
:101B9600BF3E8600870181012708B73E8600870180
:101BA60081010130A6002608A70708302702031C7A
:101BB600CA2DA70112302702031808002708B73ECE
:101BC600860087010108A6002608A20027088D3195
:101BD6006B258D3101302000A6002608A707DD2DD4
:101BE600210021082204031908000130A307003050
:101BF600A43D22082406031D022E21082306031DE8
:101C060008002003031D0C2E20000C122100A00149
:101C1600202E250803191B2E0130A6022608031DB7
:101C26001B2EA501A601A101A201A301A401A001E9
:101C360020000C162100A001A00AA301A40108009F
:101C46002000A8008C31AF248E31003A031D302EBF
:101C5600200028088C319624080020002808031D3F
:101C6600362E0330402E03302806031D3C2EA801D5
:101C76004A2E2803031D442E0230A7002708A80079
:101C86004A2E02302806031D4A2EA801A80A013052
:101C96008C3196248E31200028088C3196248E3182
:101CA60020002808013E8C319624080021008C165D
:101CB6002710A710270803390438A700A801A9018F
:101CC6002000A7011230270203187D2E27088D3128
:101CD60026258E312000A6002708B73E86008701FC
:101CE600260881000130A6002608A7071230270221
:101CF600031C692E37302100470625300319480694
:101D0600031908002000A701083027020318982E9F
:101D16002708B73E8600870181010130A600260804
:101D2600A70708302702031C8B2E37302100C70077
:101D36002530C800080021004E08031DAB2EC9013E
:101D4600CA010430CB000030CC00CE01CE0A080018
:101D56004E03031D080049084A04031DE22E4B08E2
:101D66004C04031DBA2ECE01CD01CD0A0800013068
:101D7600CB020030CC3B01302000A6000030A7008B
:101D860021004B0A2000C92EA635A70D890BC72EA8
:101D9600A618D12E1E30A8000030D42E9030A800F0
:101DA6000130A9002908A3002808A200A401A40A5A
:101DB6008C31E624F4302100C9000130CA0001301C
:101DC600C9020030CA3B0800F601F11FF12EF009E6
:101DD600F109F00A0319F10AF601F60AF31FFC2EBF
:101DE600F209F309F20A0319F30A0130F400740840
:101DF600F606F701F8017008710403192B2FF50197
:101E0600F50AF11B102F0130F035F10D890B072F64
:101E16000130F4007408F507042F0130F735F80D8A
:101E2600890B112F71087302031D1B2F7008720294
:101E3600031C222F7008F2027108F33B771401305D
:101E4600F136F00C890B232F0130F502031D102FFC
:101E560076080319332FF709F809F70A0319F80A60
:101E66007808F1007708F00008002000A40021009F
:101E7600270C890C3F39033A0319432F0030080019
:101E86002F08031D562F3008031D562F3108031D3A
:101E9600562F32080F39031D562F270803390438E9
:101EA600A700003008002F0A031D6E2F300A031DFD
:101EB6006E2F310A031D6E2F0F3032052000A2004F
:101EC6000F302206031D6E2F210027080339043820
:101ED600A700003008002000A501083025020318DD
:101EE6008A2F2508AB3E860087010108A200250837
:101EF6002407A300230886008701220881000130F9
:101F0600A2002208A50708302502031C742F210011
:101F1600270803390438A7000130080021004E08BD
:101F2600031DB12F9630C9000030CA0007304F0696
:101F36000319A22FDC302000DA000530A62FFA3074
:101F46002000DA000030DB005B082100CC00200016
:101F56005A082100CB00CE01CE0A08004E03031D0D
:101F66000800803156208F312000D9005908DC0046
:101F760001302100C9020030CA3B49084A04031D4A
:101F8600CA2FCE01CD01CD0A8C311E2408000130A6
:101F96002100CB020030CC3B4B084C04031DF52F2F
:101FA6004B302000A2000030A300A401A40A8C310B
:101FB600E6248F3121004F088E3123268F318C3154
:101FC6001B248F318C311E248F3136302100C900FD
:101FD6000130CA0003302000D90059082100CE0084
:101FE600CD01CD0A4F0820005C06031D080096307F
:0A1FF6002100C9000030CA000800F5
:020000040001F9
:04000E001CEFFFDE06
:00000001FF
