:03000B00020231BD
:10023100C0E0C0D075D000C007758CF3758A3785D2
:100241000D0EA297E433FF8F0DE50EB50D20C3E52A
:1002510009943CE5089400500A0509E50970020576
:1002610008802F750C01750A00750B008024750834
:1002710000750900C3E50B9404E50A9400500805D4
:100281000BE50B7002050AE50B6404450A70037562
:090291000C00D007D0D0D0E032FF
:03001B0002059843
:09059800758DE0758B00B2833211
:10029A007589FF75B10075B20075B30075B4007544
:1002AA00AC0075AD0043B38053B47F53B3FB43B482
:1002BA000453B1DF43B220750800750900750C00BC
:1002CA00750D01750E01750A00750B005389F0430F
:1002DA008901438E08758CF3758A37D2A9D2AFD2B9
:1002EA008CE50CB40106D292D28580F5C292C28501
:0302FA0080EF2270
:100508008F128E118D108C0F53B1BF53B2BF53B1E0
:100518007F53B27F759850438920438780438E105C
:1005280053C4DFAB12AA11A910A80F7F407E427DE9
:100538000F7C0012005AEF04FFEFF404F58DD28E01
:03054800D2992223
:100110008F168E158D148C1353B1BF53B2BF53B1CC
:100120007F53B27F75985043878053C4F843C420EF
:10013000AB16AA15A914A8137F407E427D0F7C0040
:1001400012005AA804A905AA06AB07C374FF9BFFB7
:1001500074FF9AFEE499FDE498FC78081200FD8F84
:10016000C6AB16AA15A914A8137F407E427D0F7C4A
:100170000012005AA804A905AA06AB07C374FF9B86
:10018000FF74FF9AFEE499FDE498FCEF54FFFFEE44
:100190005400FEED5400FDEC5400FC8FC543C40830
:0301A000D29922CF
:0A000E003098FD85991FC298AF1FBE
:0100180022C5
:0B0577008F35C2998535993099FD221F
:1001A3008F1A8E198D188C1753B1FB53B2FB53B3AF
:1001B300BF53B4BF75F85075C40853C4DFAB1AAA54
:1001C30019A918A8177F407E427D0F7C0012005AA0
:1001D300A804A905AA06AB07C374FF9BFF74FF9A83
:1001E300FEE499FDE498FC78081200FD8FC6AB1A73
:1001F300AA19A918A8177F407E427D0F7C00120020
:100203005AA804A905AA06AB07C374FF9BFF74FF92
:100213009AFEE499FDE498FCEF54FFFFEE5400FED0
:0E022300ED5400FDEC5400FC8FC543C40822CE
:0A05820030F8FD859A36C2F8AF3656
:01058C00224C
:0B058D008F37C2F985379A30F9FD2244
:100406008F1E8E1D8D1C8C1B538EF7438901D28C3B
:100416007F007E007D007C00AB1EAA1DA91CA81BC8
:10042600C31200EC602D758A7E758CFF308DFDC27F
:100436008DAF1EAE1DAD1CAC1B7BFF7AFF79FF781E
:10044600FFEF2BF51EEE3AF51DED39F51CEC38F5F0
:060456001B80BDC28C22D8
:10045C008F248E238D228C21538EF7438901D28CCD
:10046C007F007E007D007C00AB24AA23A922A8215A
:10047C00C31200EC602D758ACA758CFA308DFDC2E2
:10048C008DAF24AE23AD22AC217BFF7AFF79FF78B0
:10049C00FFEF2BF524EE3AF523ED39F522EC38F588
:0604AC002180BDC28C227C
:1004B2008F288E278D268C25538EEF438910D28E5E
:1004C2007F007E007D007C00AB28AA27A926A825F4
:1004D200C31200EC602D758BEA758DCB308FFDC297
:1004E2008FAF28AE27AD26AC257BFF7AFF79FF7848
:1004F200FFEF2BF528EE3AF527ED39F526EC38F526
:060502002580BDC28E221F
:1002FD008F2C8E2B8D2A8C2953C9BF53C9DF43C92F
:10030D0010D2CA7F007E007D007C00AB2CAA2BA9E9
:10031D002AA829C31200EC602D75CC3075CDF830AC
:10032D00CFFDC2CFAF2CAE2BAD2AAC297BFF7AFF10
:10033D0079FF78FFEF2BF52CEE3AF52BED39F52AF9
:09034D00EC38F52980BDC2CA227A
:100356008F308E2F8D2E8C2D75C40743C4087F00D9
:100366007E007D007C00AB30AA2FA92EA82DC312DB
:1003760000EC603075C52C75C6CFE5C430E4FB5380
:10038600C4EFAF30AE2FAD2EAC2D7BFF7AFF79FFD9
:1003960078FFEF2BF530EE3AF52FED39F52EEC38E8
:0803A600F52D80BA53C4F722C3
:1003AE008F348E338D328C3175C40743C4087F0071
:1003BE007E007D007C00AB34AA33A932A831C31273
:1003CE0000EC603075C5D875C6FFE5C430E4FB534C
:1003DE00C4EFAF34AE33AD32AC317BFF7AFF79FF71
:1003EE0078FFEF2BF534EE3AF533ED39F532EC3884
:0803FE00F53180BA53C4F72267
:0300000002054BAB
:10054B0075C7AA75C75575FD5A75C7AA75C7557571
:10055B00FDA5787FE4F6D8FD9000007FFF7E03E4D5
:0C056B00F0A3DFFCDEFA75813702029A73
:10001E0075F008758200EF2FFFEE33FECD33CDCC99
:10002E0033CCC58233C5829BED9AEC99E58298401C
:10003E000CF582EE9BFEED9AFDEC99FC0FD5F0D6F9
:10004E00E4CEFBE4CDFAE4CCF9A88222B800C1B923
:10005E000059BA002DEC8BF084CFCECDFCE5F0CB61
:10006E00F97818EF2FFFEE33FEED33FDEC33FCEB9A
:10007E0033FB10D703994004EB99FB0FD8E5E4F955
:10008E00FA227818EF2FFFEE33FEED33FDEC33FC42
:10009E00C933C910D7059BE99A4007EC9BFCE99A36
:1000AE00F90FD8E0E4C9FAE4CCFB2275F010EF2F7B
:1000BE00FFEE33FEED33FDCC33CCC833C810D7077B
:1000CE009BEC9AE899400AED9BFDEC9AFCE899F8B6
:0E00DE000FD5F0DAE4CDFBE4CCFAE4C8F92249
:1000EC00EB9FF5F0EA9E42F0E99D42F0E89C45F06A
:0100FC0022E1
:1000FD00E8600FECC313FCED13FDEE13FEEF13FFE1
:03010D00D8F12204
:00000001FF
